

Microchip Technology PIC LITE Macro Assembler V1.44 build -154322312 
                                                                                               Mon Nov 27 01:07:56 2017

Microchip Technology Omniscient Code Generator v1.44 (Free mode) build 201709140600
     1                           	processor	16F73
     2                           	opt	pw 120
     3                           	opt	lm
     4                           	psect	cinit,global,class=CODE,merge=1,delta=2
     5                           	psect	cstackCOMMON,global,class=COMMON,space=1,delta=1
     6                           	psect	cstackBANK0,global,class=BANK0,space=1,delta=1
     7                           	psect	maintext,global,class=CODE,split=1,delta=2
     8                           	psect	text1,local,class=CODE,merge=1,delta=2
     9                           	psect	text2,local,class=CODE,merge=1,delta=2,group=1
    10                           	psect	text3,local,class=CODE,merge=1,delta=2
    11                           	dabs	1,0x7E,2
    12  0000                     
    13                           ; Version 1.44
    14                           ; Generated 14/09/2017 GMT
    15                           ; 
    16                           ; Copyright © 2017, Microchip Technology Inc. and its subsidiaries ("Microchip")
    17                           ; All rights reserved.
    18                           ; 
    19                           ; This software is developed by Microchip Technology Inc. and its subsidiaries ("Microch
      +                          ip").
    20                           ; 
    21                           ; Redistribution and use in source and binary forms, with or without modification, are
    22                           ; permitted provided that the following conditions are met:
    23                           ; 
    24                           ;     1. Redistributions of source code must retain the above copyright notice, this lis
      +                          t of
    25                           ;        conditions and the following disclaimer.
    26                           ; 
    27                           ;     2. Redistributions in binary form must reproduce the above copyright notice, this 
      +                          list
    28                           ;        of conditions and the following disclaimer in the documentation and/or other
    29                           ;        materials provided with the distribution.
    30                           ; 
    31                           ;     3. Microchip's name may not be used to endorse or promote products derived from th
      +                          is
    32                           ;        software without specific prior written permission.
    33                           ; 
    34                           ; THIS SOFTWARE IS PROVIDED BY MICROCHIP "AS IS" AND ANY EXPRESS OR IMPLIED WARRANTIES,
    35                           ; INCLUDING, BUT NOT LIMITED TO, THE IMPLIED WARRANTIES OF MERCHANTABILITY AND FITNESS F
      +                          OR
    36                           ; PURPOSE ARE DISCLAIMED.  IN NO EVENT SHALL MICROCHIP BE LIABLE FOR ANY DIRECT, INDIREC
      +                          T,
    37                           ; INCIDENTAL, SPECIAL, EXEMPLARY, OR CONSEQUENTIAL DAMAGES (INCLUDING BUT NOT LIMITED TO
    38                           ; PROCUREMENT OF SUBSTITUTE GOODS OR SERVICES; LOSS OF USE, DATA OR PROFITS; OR BUSINESS
    39                           ; INTERRUPTION) HOWSOEVER CAUSED AND ON ANY THEORY OF LIABILITY, WHETHER IN CONTRACT, ST
      +                          RICT
    40                           ; LIABILITY, OR TORT (INCLUDING NEGLIGENCE OR OTHERWISE) ARISING IN ANY WAY OUT OF THE U
      +                          SE OF
    41                           ; THIS SOFTWARE, EVEN IF ADVISED OF THE POSSIBILITY OF SUCH DAMAGE.
    42                           ; 
    43                           ; 
    44                           ; Code-generator required, PIC16F73 Definitions
    45                           ; 
    46                           ; SFR Addresses
    47  0000                     	;# 
    48  0001                     	;# 
    49  0002                     	;# 
    50  0003                     	;# 
    51  0004                     	;# 
    52  0005                     	;# 
    53  0006                     	;# 
    54  0007                     	;# 
    55  000A                     	;# 
    56  000B                     	;# 
    57  000C                     	;# 
    58  000D                     	;# 
    59  000E                     	;# 
    60  000E                     	;# 
    61  000F                     	;# 
    62  0010                     	;# 
    63  0011                     	;# 
    64  0012                     	;# 
    65  0013                     	;# 
    66  0014                     	;# 
    67  0015                     	;# 
    68  0015                     	;# 
    69  0016                     	;# 
    70  0017                     	;# 
    71  0018                     	;# 
    72  0019                     	;# 
    73  001A                     	;# 
    74  001B                     	;# 
    75  001B                     	;# 
    76  001C                     	;# 
    77  001D                     	;# 
    78  001E                     	;# 
    79  001F                     	;# 
    80  0081                     	;# 
    81  0085                     	;# 
    82  0086                     	;# 
    83  0087                     	;# 
    84  008C                     	;# 
    85  008D                     	;# 
    86  008E                     	;# 
    87  0092                     	;# 
    88  0093                     	;# 
    89  0094                     	;# 
    90  0098                     	;# 
    91  0099                     	;# 
    92  009F                     	;# 
    93  010C                     	;# 
    94  010D                     	;# 
    95  010E                     	;# 
    96  010F                     	;# 
    97  018C                     	;# 
    98  0028                     _RA0	set	40
    99  009F                     _ADCON1	set	159
   100  0439                     _TRISC1	set	1081
   101  0438                     _TRISC0	set	1080
   102  0428                     _TRISA0	set	1064
   103                           
   104                           ; #config settings
   105  0000                     
   106                           	psect	cinit
   107  07FD                     start_initialization:	
   108  07FD                     __initialization:	
   109  07FD                     end_of_initialization:	
   110                           ;End of C runtime variable initialization code
   111                           
   112  07FD                     __end_of__initialization:	
   113  07FD  0183               	clrf	3
   114  07FE  118A  2F9D         	ljmp	_main	;jump to C main() function
   115                           
   116                           	psect	cstackCOMMON
   117  0000                     __pcstackCOMMON:	
   118  0000                     ??_Init:	
   119  0000                     ??_delay_us:	
   120                           ; 1 bytes @ 0x0
   121                           
   122                           
   123                           	psect	cstackBANK0
   124  0020                     __pcstackBANK0:	
   125                           ; 1 bytes @ 0x0
   126                           
   127  0020                     ?_Init:	
   128  0020                     ?_main:	
   129                           ; 1 bytes @ 0x0
   130                           
   131  0020                     ?___lldiv:	
   132                           ; 1 bytes @ 0x0
   133                           
   134  0020                     ___lldiv@divisor:	
   135                           ; 4 bytes @ 0x0
   136                           
   137                           
   138                           ; 4 bytes @ 0x0
   139  0020                     	ds	4
   140  0024                     ___lldiv@dividend:	
   141                           
   142                           ; 4 bytes @ 0x4
   143  0024                     	ds	4
   144  0028                     ??___lldiv:	
   145                           
   146                           ; 1 bytes @ 0x8
   147  0028                     	ds	1
   148  0029                     ___lldiv@quotient:	
   149                           
   150                           ; 4 bytes @ 0x9
   151  0029                     	ds	4
   152  002D                     ___lldiv@counter:	
   153                           
   154                           ; 1 bytes @ 0xD
   155  002D                     	ds	1
   156  002E                     ?_delay_us:	
   157  002E                     delay_us@delay:	
   158                           ; 1 bytes @ 0xE
   159                           
   160                           
   161                           ; 4 bytes @ 0xE
   162  002E                     	ds	4
   163  0032                     delay_us@i:	
   164                           
   165                           ; 4 bytes @ 0x12
   166  0032                     	ds	4
   167  0036                     ??_main:	
   168                           
   169                           ; 1 bytes @ 0x16
   170  0036                     	ds	2
   171  0038                     main@degDelay:	
   172                           
   173                           ; 4 bytes @ 0x18
   174  0038                     	ds	4
   175  003C                     main@counter:	
   176                           
   177                           ; 2 bytes @ 0x1C
   178  003C                     	ds	2
   179                           
   180                           	psect	maintext
   181  079D                     __pmaintext:	
   182 ;;
   183 ;;Main: autosize = 0, tempsize = 2, incstack = 0, save=0
   184 ;;
   185 ;; *************** function _main *****************
   186 ;; Defined at:
   187 ;;		line 28 in file "main.c"
   188 ;; Parameters:    Size  Location     Type
   189 ;;		None
   190 ;; Auto vars:     Size  Location     Type
   191 ;;  degDelay        4   24[BANK0 ] unsigned long 
   192 ;;  counter         2   28[BANK0 ] int 
   193 ;; Return value:  Size  Location     Type
   194 ;;                  1    wreg      void 
   195 ;; Registers used:
   196 ;;		wreg, status,2, status,0, btemp+1, pclath, cstack
   197 ;; Tracked objects:
   198 ;;		On entry : B00/0
   199 ;;		On exit  : 0/0
   200 ;;		Unchanged: 0/0
   201 ;; Data sizes:     COMMON   BANK0   BANK1
   202 ;;      Params:         0       0       0
   203 ;;      Locals:         0       6       0
   204 ;;      Temps:          0       2       0
   205 ;;      Totals:         0       8       0
   206 ;;Total ram usage:        8 bytes
   207 ;; Hardware stack levels required when called:    2
   208 ;; This function calls:
   209 ;;		_Init
   210 ;;		_delay_us
   211 ;; This function is called by:
   212 ;;		Startup code after reset
   213 ;; This function uses a non-reentrant model
   214 ;;
   215                           
   216                           
   217                           ;psect for function _main
   218  079D                     _main:	
   219                           
   220                           ;main.c: 29: Init();
   221                           
   222                           ;incstack = 0
   223                           ; Regs used in _main: [wreg+status,2+status,0+btemp+1+pclath+cstack]
   224  079D  118A  26EF  118A   	fcall	_Init
   225                           
   226                           ;main.c: 31: int counter = 0;
   227  07A0  1283               	bcf	3,5	;RP0=0, select bank0
   228  07A1  1303               	bcf	3,6	;RP1=0, select bank0
   229  07A2  01BC               	clrf	main@counter
   230  07A3  01BD               	clrf	main@counter+1
   231                           
   232                           ;main.c: 32: unsigned long degDelay = 2000.0;
   233  07A4  3000               	movlw	0
   234  07A5  00BB               	movwf	main@degDelay+3
   235  07A6  3000               	movlw	0
   236  07A7  00BA               	movwf	main@degDelay+2
   237  07A8  3007               	movlw	7
   238  07A9  00B9               	movwf	main@degDelay+1
   239  07AA  30D0               	movlw	208
   240  07AB  00B8               	movwf	main@degDelay
   241  07AC                     l529:	
   242                           ;main.c: 34: while (1) {
   243                           
   244                           
   245                           ;main.c: 35: _delay((unsigned long)((20)*(12000000/4000.0)));
   246  07AC  304E               	movlw	78
   247  07AD  1283               	bcf	3,5	;RP0=0, select bank0
   248  07AE  1303               	bcf	3,6	;RP1=0, select bank0
   249  07AF  00B7               	movwf	??_main+1
   250  07B0  30EA               	movlw	234
   251  07B1  00B6               	movwf	??_main
   252  07B2                     u237:	
   253  07B2  0BB6               	decfsz	??_main,f
   254  07B3  2FB2               	goto	u237
   255  07B4  0BB7               	decfsz	??_main+1,f
   256  07B5  2FB2               	goto	u237
   257  07B6  2FB7               	nop2
   258                           
   259                           ;main.c: 36: RA0 = 1;
   260  07B7  1283               	bcf	3,5	;RP0=0, select bank0
   261  07B8  1303               	bcf	3,6	;RP1=0, select bank0
   262  07B9  1405               	bsf	5,0	;volatile
   263                           
   264                           ;main.c: 38: if (counter == 120) {
   265  07BA  3078               	movlw	120
   266  07BB  063C               	xorwf	main@counter,w
   267  07BC  043D               	iorwf	main@counter+1,w
   268  07BD  1D03               	btfss	3,2
   269  07BE  2FC1               	goto	l537
   270                           
   271                           ;main.c: 39: counter = 0;
   272  07BF  01BC               	clrf	main@counter
   273  07C0  01BD               	clrf	main@counter+1
   274  07C1                     l537:	
   275                           
   276                           ;main.c: 40: }
   277                           ;main.c: 42: if (counter < 60) {
   278  07C1  083D               	movf	main@counter+1,w
   279  07C2  3A80               	xorlw	128
   280  07C3  00FF               	movwf	127
   281  07C4  3080               	movlw	128
   282  07C5  027F               	subwf	127,w
   283  07C6  1D03               	skipz
   284  07C7  2FCA               	goto	u215
   285  07C8  303C               	movlw	60
   286  07C9  023C               	subwf	main@counter,w
   287  07CA                     u215:	
   288  07CA  1803               	skipnc
   289  07CB  2FD9               	goto	l541
   290                           
   291                           ;main.c: 43: delay_us(800);
   292  07CC  3000               	movlw	0
   293  07CD  1283               	bcf	3,5	;RP0=0, select bank0
   294  07CE  1303               	bcf	3,6	;RP1=0, select bank0
   295  07CF  00B1               	movwf	delay_us@delay+3
   296  07D0  3000               	movlw	0
   297  07D1  00B0               	movwf	delay_us@delay+2
   298  07D2  3003               	movlw	3
   299  07D3  00AF               	movwf	delay_us@delay+1
   300  07D4  3020               	movlw	32
   301  07D5  00AE               	movwf	delay_us@delay
   302  07D6  118A  26F7  118A   	fcall	_delay_us
   303  07D9                     l541:	
   304                           
   305                           ;main.c: 44: }
   306                           ;main.c: 46: if (counter > 60) {
   307  07D9  1283               	bcf	3,5	;RP0=0, select bank0
   308  07DA  1303               	bcf	3,6	;RP1=0, select bank0
   309  07DB  083D               	movf	main@counter+1,w
   310  07DC  3A80               	xorlw	128
   311  07DD  00FF               	movwf	127
   312  07DE  3080               	movlw	128
   313  07DF  027F               	subwf	127,w
   314  07E0  1D03               	skipz
   315  07E1  2FE4               	goto	u225
   316  07E2  303D               	movlw	61
   317  07E3  023C               	subwf	main@counter,w
   318  07E4                     u225:	
   319  07E4  1C03               	skipc
   320  07E5  2FF3               	goto	l545
   321                           
   322                           ;main.c: 47: delay_us(2200);
   323  07E6  3000               	movlw	0
   324  07E7  1283               	bcf	3,5	;RP0=0, select bank0
   325  07E8  1303               	bcf	3,6	;RP1=0, select bank0
   326  07E9  00B1               	movwf	delay_us@delay+3
   327  07EA  3000               	movlw	0
   328  07EB  00B0               	movwf	delay_us@delay+2
   329  07EC  3008               	movlw	8
   330  07ED  00AF               	movwf	delay_us@delay+1
   331  07EE  3098               	movlw	152
   332  07EF  00AE               	movwf	delay_us@delay
   333  07F0  118A  26F7  118A   	fcall	_delay_us
   334  07F3                     l545:	
   335                           
   336                           ;main.c: 48: }
   337                           ;main.c: 50: RA0 = 0;
   338  07F3  1283               	bcf	3,5	;RP0=0, select bank0
   339  07F4  1303               	bcf	3,6	;RP1=0, select bank0
   340  07F5  1005               	bcf	5,0	;volatile
   341                           
   342                           ;main.c: 52: counter++;
   343  07F6  3001               	movlw	1
   344  07F7  07BC               	addwf	main@counter,f
   345  07F8  1803               	skipnc
   346  07F9  0ABD               	incf	main@counter+1,f
   347  07FA  3000               	movlw	0
   348  07FB  07BD               	addwf	main@counter+1,f
   349  07FC  2FAC               	goto	l529
   350  07FD                     __end_of_main:	
   351                           
   352                           	psect	text1
   353  06F7                     __ptext1:	
   354 ;; *************** function _delay_us *****************
   355 ;; Defined at:
   356 ;;		line 21 in file "main.c"
   357 ;; Parameters:    Size  Location     Type
   358 ;;  delay           4   14[BANK0 ] unsigned long 
   359 ;; Auto vars:     Size  Location     Type
   360 ;;  i               4   18[BANK0 ] unsigned long 
   361 ;; Return value:  Size  Location     Type
   362 ;;                  1    wreg      void 
   363 ;; Registers used:
   364 ;;		wreg, status,2, status,0, pclath, cstack
   365 ;; Tracked objects:
   366 ;;		On entry : 0/0
   367 ;;		On exit  : 0/0
   368 ;;		Unchanged: 0/0
   369 ;; Data sizes:     COMMON   BANK0   BANK1
   370 ;;      Params:         0       4       0
   371 ;;      Locals:         0       4       0
   372 ;;      Temps:          0       0       0
   373 ;;      Totals:         0       8       0
   374 ;;Total ram usage:        8 bytes
   375 ;; Hardware stack levels used:    1
   376 ;; Hardware stack levels required when called:    1
   377 ;; This function calls:
   378 ;;		___lldiv
   379 ;; This function is called by:
   380 ;;		_main
   381 ;; This function uses a non-reentrant model
   382 ;;
   383                           
   384                           
   385                           ;psect for function _delay_us
   386  06F7                     _delay_us:	
   387                           
   388                           ;main.c: 22: delay = delay / (12000000/1000000);
   389                           
   390                           ;incstack = 0
   391                           ; Regs used in _delay_us: [wreg+status,2+status,0+pclath+cstack]
   392  06F7  3000               	movlw	0
   393  06F8  1283               	bcf	3,5	;RP0=0, select bank0
   394  06F9  1303               	bcf	3,6	;RP1=0, select bank0
   395  06FA  00A3               	movwf	___lldiv@divisor+3
   396  06FB  3000               	movlw	0
   397  06FC  00A2               	movwf	___lldiv@divisor+2
   398  06FD  3000               	movlw	0
   399  06FE  00A1               	movwf	___lldiv@divisor+1
   400  06FF  300C               	movlw	12
   401  0700  00A0               	movwf	___lldiv@divisor
   402  0701  0831               	movf	delay_us@delay+3,w
   403  0702  00A7               	movwf	___lldiv@dividend+3
   404  0703  0830               	movf	delay_us@delay+2,w
   405  0704  00A6               	movwf	___lldiv@dividend+2
   406  0705  082F               	movf	delay_us@delay+1,w
   407  0706  00A5               	movwf	___lldiv@dividend+1
   408  0707  082E               	movf	delay_us@delay,w
   409  0708  00A4               	movwf	___lldiv@dividend
   410  0709  118A  273D  118A   	fcall	___lldiv
   411  070C  1283               	bcf	3,5	;RP0=0, select bank0
   412  070D  1303               	bcf	3,6	;RP1=0, select bank0
   413  070E  0823               	movf	?___lldiv+3,w
   414  070F  00B1               	movwf	delay_us@delay+3
   415  0710  0822               	movf	?___lldiv+2,w
   416  0711  00B0               	movwf	delay_us@delay+2
   417  0712  0821               	movf	?___lldiv+1,w
   418  0713  00AF               	movwf	delay_us@delay+1
   419  0714  0820               	movf	?___lldiv,w
   420  0715  00AE               	movwf	delay_us@delay
   421                           
   422                           ;main.c: 24: for (unsigned long i = 0; i < delay; i++) {
   423  0716  3000               	movlw	0
   424  0717  00B5               	movwf	delay_us@i+3
   425  0718  3000               	movlw	0
   426  0719  00B4               	movwf	delay_us@i+2
   427  071A  3000               	movlw	0
   428  071B  00B3               	movwf	delay_us@i+1
   429  071C  3000               	movlw	0
   430  071D  00B2               	movwf	delay_us@i
   431  071E                     l17:	
   432  071E  0831               	movf	delay_us@delay+3,w
   433  071F  0235               	subwf	delay_us@i+3,w
   434  0720  1D03               	skipz
   435  0721  2F2C               	goto	u195
   436  0722  0830               	movf	delay_us@delay+2,w
   437  0723  0234               	subwf	delay_us@i+2,w
   438  0724  1D03               	skipz
   439  0725  2F2C               	goto	u195
   440  0726  082F               	movf	delay_us@delay+1,w
   441  0727  0233               	subwf	delay_us@i+1,w
   442  0728  1D03               	skipz
   443  0729  2F2C               	goto	u195
   444  072A  082E               	movf	delay_us@delay,w
   445  072B  0232               	subwf	delay_us@i,w
   446  072C                     u195:	
   447  072C  1803               	btfsc	3,0
   448  072D  0008               	return
   449  072E  3001               	movlw	1
   450  072F  07B2               	addwf	delay_us@i,f
   451  0730  3000               	movlw	0
   452  0731  1803               	skipnc
   453  0732  3001               	movlw	1
   454  0733  07B3               	addwf	delay_us@i+1,f
   455  0734  3000               	movlw	0
   456  0735  1803               	skipnc
   457  0736  3001               	movlw	1
   458  0737  07B4               	addwf	delay_us@i+2,f
   459  0738  3000               	movlw	0
   460  0739  1803               	skipnc
   461  073A  3001               	movlw	1
   462  073B  07B5               	addwf	delay_us@i+3,f
   463  073C  2F1E               	goto	l17
   464  073D                     __end_of_delay_us:	
   465                           
   466                           	psect	text2
   467  073D                     __ptext2:	
   468 ;; *************** function ___lldiv *****************
   469 ;; Defined at:
   470 ;;		line 6 in file "C:\Program Files (x86)\Microchip\xc8\v1.44\sources\common\lldiv.c"
   471 ;; Parameters:    Size  Location     Type
   472 ;;  divisor         4    0[BANK0 ] unsigned long 
   473 ;;  dividend        4    4[BANK0 ] unsigned long 
   474 ;; Auto vars:     Size  Location     Type
   475 ;;  quotient        4    9[BANK0 ] unsigned long 
   476 ;;  counter         1   13[BANK0 ] unsigned char 
   477 ;; Return value:  Size  Location     Type
   478 ;;                  4    0[BANK0 ] unsigned long 
   479 ;; Registers used:
   480 ;;		wreg, status,2, status,0
   481 ;; Tracked objects:
   482 ;;		On entry : 0/0
   483 ;;		On exit  : 0/0
   484 ;;		Unchanged: 0/0
   485 ;; Data sizes:     COMMON   BANK0   BANK1
   486 ;;      Params:         0       8       0
   487 ;;      Locals:         0       5       0
   488 ;;      Temps:          0       1       0
   489 ;;      Totals:         0      14       0
   490 ;;Total ram usage:       14 bytes
   491 ;; Hardware stack levels used:    1
   492 ;; This function calls:
   493 ;;		Nothing
   494 ;; This function is called by:
   495 ;;		_delay_us
   496 ;; This function uses a non-reentrant model
   497 ;;
   498                           
   499                           
   500                           ;psect for function ___lldiv
   501  073D                     ___lldiv:	
   502                           
   503                           ;incstack = 0
   504                           ; Regs used in ___lldiv: [wreg+status,2+status,0]
   505  073D  3000               	movlw	0
   506  073E  1283               	bcf	3,5	;RP0=0, select bank0
   507  073F  1303               	bcf	3,6	;RP1=0, select bank0
   508  0740  00AC               	movwf	___lldiv@quotient+3
   509  0741  3000               	movlw	0
   510  0742  00AB               	movwf	___lldiv@quotient+2
   511  0743  3000               	movlw	0
   512  0744  00AA               	movwf	___lldiv@quotient+1
   513  0745  3000               	movlw	0
   514  0746  00A9               	movwf	___lldiv@quotient
   515  0747  0823               	movf	___lldiv@divisor+3,w
   516  0748  0422               	iorwf	___lldiv@divisor+2,w
   517  0749  0421               	iorwf	___lldiv@divisor+1,w
   518  074A  0420               	iorwf	___lldiv@divisor,w
   519  074B  1903               	skipnz
   520  074C  2F94               	goto	l505
   521  074D  01AD               	clrf	___lldiv@counter
   522  074E  0AAD               	incf	___lldiv@counter,f
   523  074F                     l491:	
   524  074F  1BA3               	btfsc	___lldiv@divisor+3,7
   525  0750  2F5F               	goto	l493
   526  0751  3001               	movlw	1
   527  0752  00A8               	movwf	??___lldiv
   528  0753                     u135:	
   529  0753  1003               	clrc
   530  0754  0DA0               	rlf	___lldiv@divisor,f
   531  0755  0DA1               	rlf	___lldiv@divisor+1,f
   532  0756  0DA2               	rlf	___lldiv@divisor+2,f
   533  0757  0DA3               	rlf	___lldiv@divisor+3,f
   534  0758  0BA8               	decfsz	??___lldiv,f
   535  0759  2F53               	goto	u135
   536  075A  3001               	movlw	1
   537  075B  00A8               	movwf	??___lldiv
   538  075C  0828               	movf	??___lldiv,w
   539  075D  07AD               	addwf	___lldiv@counter,f
   540  075E  2F4F               	goto	l491
   541  075F                     l493:	
   542  075F  3001               	movlw	1
   543  0760  00A8               	movwf	??___lldiv
   544  0761                     u155:	
   545  0761  1003               	clrc
   546  0762  0DA9               	rlf	___lldiv@quotient,f
   547  0763  0DAA               	rlf	___lldiv@quotient+1,f
   548  0764  0DAB               	rlf	___lldiv@quotient+2,f
   549  0765  0DAC               	rlf	___lldiv@quotient+3,f
   550  0766  0BA8               	decfsz	??___lldiv,f
   551  0767  2F61               	goto	u155
   552  0768  0823               	movf	___lldiv@divisor+3,w
   553  0769  0227               	subwf	___lldiv@dividend+3,w
   554  076A  1D03               	skipz
   555  076B  2F76               	goto	u165
   556  076C  0822               	movf	___lldiv@divisor+2,w
   557  076D  0226               	subwf	___lldiv@dividend+2,w
   558  076E  1D03               	skipz
   559  076F  2F76               	goto	u165
   560  0770  0821               	movf	___lldiv@divisor+1,w
   561  0771  0225               	subwf	___lldiv@dividend+1,w
   562  0772  1D03               	skipz
   563  0773  2F76               	goto	u165
   564  0774  0820               	movf	___lldiv@divisor,w
   565  0775  0224               	subwf	___lldiv@dividend,w
   566  0776                     u165:	
   567  0776  1C03               	skipc
   568  0777  2F87               	goto	l501
   569  0778  0820               	movf	___lldiv@divisor,w
   570  0779  02A4               	subwf	___lldiv@dividend,f
   571  077A  0821               	movf	___lldiv@divisor+1,w
   572  077B  1C03               	skipc
   573  077C  0F21               	incfsz	___lldiv@divisor+1,w
   574  077D  02A5               	subwf	___lldiv@dividend+1,f
   575  077E  0822               	movf	___lldiv@divisor+2,w
   576  077F  1C03               	skipc
   577  0780  0F22               	incfsz	___lldiv@divisor+2,w
   578  0781  02A6               	subwf	___lldiv@dividend+2,f
   579  0782  0823               	movf	___lldiv@divisor+3,w
   580  0783  1C03               	skipc
   581  0784  0F23               	incfsz	___lldiv@divisor+3,w
   582  0785  02A7               	subwf	___lldiv@dividend+3,f
   583  0786  1429               	bsf	___lldiv@quotient,0
   584  0787                     l501:	
   585  0787  3001               	movlw	1
   586  0788                     u175:	
   587  0788  1003               	clrc
   588  0789  0CA3               	rrf	___lldiv@divisor+3,f
   589  078A  0CA2               	rrf	___lldiv@divisor+2,f
   590  078B  0CA1               	rrf	___lldiv@divisor+1,f
   591  078C  0CA0               	rrf	___lldiv@divisor,f
   592  078D  3EFF               	addlw	-1
   593  078E  1D03               	skipz
   594  078F  2F88               	goto	u175
   595  0790  3001               	movlw	1
   596  0791  02AD               	subwf	___lldiv@counter,f
   597  0792  1D03               	btfss	3,2
   598  0793  2F5F               	goto	l493
   599  0794                     l505:	
   600  0794  082C               	movf	___lldiv@quotient+3,w
   601  0795  00A3               	movwf	?___lldiv+3
   602  0796  082B               	movf	___lldiv@quotient+2,w
   603  0797  00A2               	movwf	?___lldiv+2
   604  0798  082A               	movf	___lldiv@quotient+1,w
   605  0799  00A1               	movwf	?___lldiv+1
   606  079A  0829               	movf	___lldiv@quotient,w
   607  079B  00A0               	movwf	?___lldiv
   608  079C  0008               	return
   609  079D                     __end_of___lldiv:	
   610                           
   611                           	psect	text3
   612  06EF                     __ptext3:	
   613 ;; *************** function _Init *****************
   614 ;; Defined at:
   615 ;;		line 56 in file "main.c"
   616 ;; Parameters:    Size  Location     Type
   617 ;;		None
   618 ;; Auto vars:     Size  Location     Type
   619 ;;		None
   620 ;; Return value:  Size  Location     Type
   621 ;;                  1    wreg      void 
   622 ;; Registers used:
   623 ;;		wreg
   624 ;; Tracked objects:
   625 ;;		On entry : 0/0
   626 ;;		On exit  : 0/0
   627 ;;		Unchanged: 0/0
   628 ;; Data sizes:     COMMON   BANK0   BANK1
   629 ;;      Params:         0       0       0
   630 ;;      Locals:         0       0       0
   631 ;;      Temps:          0       0       0
   632 ;;      Totals:         0       0       0
   633 ;;Total ram usage:        0 bytes
   634 ;; Hardware stack levels used:    1
   635 ;; This function calls:
   636 ;;		Nothing
   637 ;; This function is called by:
   638 ;;		_main
   639 ;; This function uses a non-reentrant model
   640 ;;
   641                           
   642                           
   643                           ;psect for function _Init
   644  06EF                     _Init:	
   645                           
   646                           ;main.c: 58: ADCON1 = 0xff;
   647                           
   648                           ;incstack = 0
   649                           ; Regs used in _Init: [wreg]
   650  06EF  30FF               	movlw	255
   651  06F0  1683               	bsf	3,5	;RP0=1, select bank1
   652  06F1  1303               	bcf	3,6	;RP1=0, select bank1
   653  06F2  009F               	movwf	31	;volatile
   654                           
   655                           ;main.c: 59: TRISA0 = 0;
   656  06F3  1005               	bcf	5,0	;volatile
   657                           
   658                           ;main.c: 61: TRISC0 = 0;
   659  06F4  1007               	bcf	7,0	;volatile
   660                           
   661                           ;main.c: 62: TRISC1 = 0;
   662  06F5  1087               	bcf	7,1	;volatile
   663  06F6  0008               	return
   664  06F7                     __end_of_Init:	
   665  007E                     btemp	set	126	;btemp
   666  007E                     wtemp0	set	126


Data Sizes:
    Strings     0
    Constant    0
    Data        0
    BSS         0
    Persistent  0
    Stack       0

Auto Spaces:
    Space          Size  Autos    Used
    COMMON            0      0       0
    BANK0            94     30      30
    BANK1            94      0       0

Pointer List with Targets:

    None.

Critical Paths under _main in COMMON

    None.

Critical Paths under _main in BANK0

    _main->_delay_us
    _delay_us->___lldiv

Critical Paths under _main in BANK1

    None.

Call Graph Tables:

 ---------------------------------------------------------------------------------
 (Depth) Function   	        Calls       Base Space   Used Autos Params    Refs
 ---------------------------------------------------------------------------------
 (0) _main                                                 8     8      0     473
                                             22 BANK0      8     8      0
                               _Init
                           _delay_us
 ---------------------------------------------------------------------------------
 (1) _delay_us                                             8     4      4     403
                                             14 BANK0      8     4      4
                            ___lldiv
 ---------------------------------------------------------------------------------
 (2) ___lldiv                                             14     6      8     248
                                              0 BANK0     14     6      8
 ---------------------------------------------------------------------------------
 (1) _Init                                                 0     0      0       0
 ---------------------------------------------------------------------------------
 Estimated maximum stack depth 2
 ---------------------------------------------------------------------------------

 Call Graph Graphs:

 _main (ROOT)
   _Init
   _delay_us
     ___lldiv

 Address spaces:
Name               Size   Autos  Total    Cost      Usage
BITCOMMON            0      0       0       0        0.0%
NULL                 0      0       0       0        0.0%
CODE                 0      0       0       0        0.0%
BITSFR0              0      0       0       1        0.0%
SFR0                 0      0       0       1        0.0%
COMMON               0      0       0       1        0.0%
BITSFR1              0      0       0       2        0.0%
SFR1                 0      0       0       2        0.0%
STACK                0      0       0       2        0.0%
ABS                  0      0       0       3        0.0%
BITBANK0            5E      0       0       4        0.0%
BITSFR3              0      0       0       4        0.0%
SFR3                 0      0       0       4        0.0%
BANK0               5E     1E      1E       5       31.9%
BITSFR2              0      0       0       5        0.0%
SFR2                 0      0       0       5        0.0%
BITBANK1            5E      0       0       6        0.0%
BANK1               5E      0       0       7        0.0%
DATA                 0      0       0       8        0.0%


Microchip Technology PIC Macro Assembler V1.44 build -154322312 
Symbol Table                                                                                   Mon Nov 27 01:07:56 2017

            __CFG_CP$OFF 0000                       l17 071E                      l501 0787  
                    l505 0794                      l541 07D9                      l545 07F3  
                    l537 07C1                      l529 07AC                      l491 074F  
                    l493 075F                      _RA0 0028                      u135 0753  
                    u215 07CA                      u225 07E4                      u155 0761  
                    u165 0776                      u237 07B2                      u175 0788  
                    u195 072C             __CFG_FOSC$HS 0000              main@counter 003C  
                   _Init 06EF                     _main 079D                     btemp 007E  
                   start 0000             main@degDelay 0038                    ?_Init 0020  
                  ?_main 0020            __CFG_WDTE$OFF 0000          __end_of___lldiv 079D  
         __CFG_BOREN$OFF 0000                    status 0003                    wtemp0 007E  
        __initialization 07FD             __end_of_Init 06F7             __end_of_main 07FD  
                 ??_Init 0000                   ??_main 0036                   _ADCON1 009F  
                 _TRISA0 0428                   _TRISC0 0438                   _TRISC1 0439  
       __end_of_delay_us 073D           __CFG_PWRTE$OFF 0000                ??___lldiv 0028  
__end_of__initialization 07FD           __pcstackCOMMON 0000               __pmaintext 079D  
              ?_delay_us 002E                  ___lldiv 073D                  __ptext1 06F7  
                __ptext2 073D                  __ptext3 06EF               ??_delay_us 0000  
   end_of_initialization 07FD          ___lldiv@divisor 0020          ___lldiv@counter 002D  
          delay_us@delay 002E      start_initialization 07FD                ___latbits 0001  
          __pcstackBANK0 0020        __size_of_delay_us 0046                 ?___lldiv 0020  
              delay_us@i 0032         __size_of___lldiv 0060                 _delay_us 06F7  
          __size_of_Init 0008            __size_of_main 0060         ___lldiv@dividend 0024  
       ___lldiv@quotient 0029  
